:020000040000FA
:020000000428D2
:040002000034003492
:0800080083161F3085000F3044
:10001000860083128601003005181F2885182128C4
:100020000519232885192528051A2728061829289F
:1000300086182B2806192D2886192F280B28013001
:10004000312802303128033031280430312805307E
:10005000312806303128073031280830312809305E
:100060003128013E9F079F0B3A2886120B283F201C
:1000700006123328861E86163F20061637280230C1
:100080008C0006308D00A7308E008E0B45288D0B1E
:0A00900045288C0B452800000800ED
:02400E00F13F80
:00000001FF
